{
  "contractName": "QuoteChain",
  "abi": [
    {
      "inputs": [
        {
          "name": "_quote",
          "type": "string"
        }
      ],
      "payable": false,
      "stateMutability": "nonpayable",
      "type": "constructor"
    },
    {
      "constant": false,
      "inputs": [
        {
          "name": "_quote",
          "type": "string"
        }
      ],
      "name": "getQuote",
      "outputs": [],
      "payable": false,
      "stateMutability": "nonpayable",
      "type": "function"
    },
    {
      "constant": true,
      "inputs": [],
      "name": "yourQuote",
      "outputs": [
        {
          "name": "",
          "type": "string"
        }
      ],
      "payable": false,
      "stateMutability": "view",
      "type": "function"
    }
  ],
  "bytecode": "0x608060405234801561001057600080fd5b506040516106333803806106338339810180604052810190808051820192919050505033600260006101000a81548173ffffffffffffffffffffffffffffffffffffffff021916908373ffffffffffffffffffffffffffffffffffffffff1602179055508060016000600260009054906101000a900473ffffffffffffffffffffffffffffffffffffffff1673ffffffffffffffffffffffffffffffffffffffff1673ffffffffffffffffffffffffffffffffffffffff16815260200190815260200160002090805190602001906100e99291906100f0565b5050610195565b828054600181600116156101000203166002900490600052602060002090601f016020900481019282601f1061013157805160ff191683800117855561015f565b8280016001018555821561015f579182015b8281111561015e578251825591602001919060010190610143565b5b50905061016c9190610170565b5090565b61019291905b8082111561018e576000816000905550600101610176565b5090565b90565b61048f806101a46000396000f30060806040526004361061004c576000357c0100000000000000000000000000000000000000000000000000000000900463ffffffff16806345c706a51461005157806361db3c1f146100ba575b600080fd5b34801561005d57600080fd5b506100b8600480360381019080803590602001908201803590602001908080601f016020809104026020016040519081016040528093929190818152602001838380828437820191505050505050919291929050505061014a565b005b3480156100c657600080fd5b506100cf610281565b6040518080602001828103825283818151815260200191508051906020019080838360005b8381101561010f5780820151818401526020810190506100f4565b50505050905090810190601f16801561013c5780820380516001836020036101000a031916815260200191505b509250505060405180910390f35b80600160003373ffffffffffffffffffffffffffffffffffffffff1673ffffffffffffffffffffffffffffffffffffffff168152602001908152602001600020908051906020019061019d9291906103be565b50600260009054906101000a900473ffffffffffffffffffffffffffffffffffffffff166000803373ffffffffffffffffffffffffffffffffffffffff1673ffffffffffffffffffffffffffffffffffffffff16815260200190815260200160002060006101000a81548173ffffffffffffffffffffffffffffffffffffffff021916908373ffffffffffffffffffffffffffffffffffffffff16021790555033600260006101000a81548173ffffffffffffffffffffffffffffffffffffffff021916908373ffffffffffffffffffffffffffffffffffffffff16021790555050565b6060600160008060003373ffffffffffffffffffffffffffffffffffffffff1673ffffffffffffffffffffffffffffffffffffffff16815260200190815260200160002060009054906101000a900473ffffffffffffffffffffffffffffffffffffffff1673ffffffffffffffffffffffffffffffffffffffff1673ffffffffffffffffffffffffffffffffffffffff1681526020019081526020016000208054600181600116156101000203166002900480601f0160208091040260200160405190810160405280929190818152602001828054600181600116156101000203166002900480156103b45780601f10610389576101008083540402835291602001916103b4565b820191906000526020600020905b81548152906001019060200180831161039757829003601f168201915b5050505050905090565b828054600181600116156101000203166002900490600052602060002090601f016020900481019282601f106103ff57805160ff191683800117855561042d565b8280016001018555821561042d579182015b8281111561042c578251825591602001919060010190610411565b5b50905061043a919061043e565b5090565b61046091905b8082111561045c576000816000905550600101610444565b5090565b905600a165627a7a7230582062d8bb5836c9a9cc8d22edcadcfa7051e844bbc2edb37d015183e86b12efe3a20029",
  "source": "pragma solidity ^0.4.23;\n\ncontract QuoteChain {\n    mapping(address => address) fromWho;\n    mapping(address => string) private quote;\n    address lastQuoteOwner;\n    \n    constructor(string _quote) public{\n        //equire(bytes(_quote).length != 0);\n        lastQuoteOwner = msg.sender;\n        quote[lastQuoteOwner] = _quote;\n    }\n    \n    function getQuote(string _quote) public{\n        //require(fromWho[msg.sender] == 0);\n        //require(bytes(_quote).length != 0);\n        \n        quote[msg.sender] = _quote;\n        fromWho[msg.sender] = lastQuoteOwner;\n        lastQuoteOwner = msg.sender;\n    }\n    \n    function yourQuote()view public returns(string){\n        //require(fromWho[msg.sender] != 0);\n        \n        return quote[fromWho[msg.sender]];\n    }\n}\n\n\n\n",
  "sourcePath": "/Users/arturhaczek/Desktop/QuoteChain/truffle/contracts/QuoteChain.sol",
  "compiler": {
    "name": "solc",
    "version": "0.4.24+commit.e67f0147.Emscripten.clang"
  },
  "schemaVersion": "2.0.1",
  "updatedAt": "2018-10-23T19:30:16.592Z"
}